{
  "contractName": "DaoVinci",
  "abi": [
    {
      "constant": true,
      "inputs": [
        {
          "name": "",
          "type": "address"
        }
      ],
      "name": "balances",
      "outputs": [
        {
          "name": "",
          "type": "uint256"
        }
      ],
      "payable": false,
      "stateMutability": "view",
      "type": "function"
    },
    {
      "constant": false,
      "inputs": [],
      "name": "renounceOwnership",
      "outputs": [],
      "payable": false,
      "stateMutability": "nonpayable",
      "type": "function"
    },
    {
      "constant": true,
      "inputs": [],
      "name": "owner",
      "outputs": [
        {
          "name": "",
          "type": "address"
        }
      ],
      "payable": false,
      "stateMutability": "view",
      "type": "function"
    },
    {
      "constant": true,
      "inputs": [],
      "name": "isOwner",
      "outputs": [
        {
          "name": "",
          "type": "bool"
        }
      ],
      "payable": false,
      "stateMutability": "view",
      "type": "function"
    },
    {
      "constant": false,
      "inputs": [
        {
          "name": "newOwner",
          "type": "address"
        }
      ],
      "name": "transferOwnership",
      "outputs": [],
      "payable": false,
      "stateMutability": "nonpayable",
      "type": "function"
    },
    {
      "anonymous": false,
      "inputs": [
        {
          "indexed": true,
          "name": "previousOwner",
          "type": "address"
        },
        {
          "indexed": true,
          "name": "newOwner",
          "type": "address"
        }
      ],
      "name": "OwnershipTransferred",
      "type": "event"
    },
    {
      "constant": false,
      "inputs": [],
      "name": "initialize",
      "outputs": [],
      "payable": false,
      "stateMutability": "nonpayable",
      "type": "function"
    },
    {
      "constant": false,
      "inputs": [
        {
          "name": "sender",
          "type": "address"
        }
      ],
      "name": "initialize",
      "outputs": [],
      "payable": false,
      "stateMutability": "nonpayable",
      "type": "function"
    },
    {
      "constant": false,
      "inputs": [
        {
          "components": [
            {
              "name": "payee",
              "type": "address"
            },
            {
              "name": "amount",
              "type": "uint256"
            }
          ],
          "name": "_rewards",
          "type": "tuple[]"
        }
      ],
      "name": "distributeRewards",
      "outputs": [],
      "payable": true,
      "stateMutability": "payable",
      "type": "function"
    },
    {
      "constant": false,
      "inputs": [],
      "name": "withdraw",
      "outputs": [],
      "payable": false,
      "stateMutability": "nonpayable",
      "type": "function"
    },
    {
      "constant": false,
      "inputs": [
        {
          "name": "usersAddress",
          "type": "address"
        }
      ],
      "name": "withdrawOnBehalf",
      "outputs": [],
      "payable": false,
      "stateMutability": "nonpayable",
      "type": "function"
    }
  ],
  "bytecode": "0x608060405234801561001057600080fd5b50610df9806100206000396000f3fe6080604052600436106100a3576000357c0100000000000000000000000000000000000000000000000000000000900463ffffffff168062cfb539146100a857806327e235e3146100c45780633ccfd60b14610101578063715018a6146101185780638129fc1c1461012f5780638da5cb5b146101465780638f32d59b14610171578063a22b97f51461019c578063c4d66de8146101c5578063f2fde38b146101ee575b600080fd5b6100c260048036036100bd9190810190610bb8565b610217565b005b3480156100d057600080fd5b506100eb60048036036100e69190810190610b66565b6102a3565b6040516100f89190610cd9565b60405180910390f35b34801561010d57600080fd5b506101166102bb565b005b34801561012457600080fd5b5061012d61038e565b005b34801561013b57600080fd5b50610144610462565b005b34801561015257600080fd5b5061015b610547565b6040516101689190610c83565b60405180910390f35b34801561017d57600080fd5b50610186610571565b6040516101939190610c9e565b60405180910390f35b3480156101a857600080fd5b506101c360048036036101be9190810190610b8f565b6105c9565b005b3480156101d157600080fd5b506101ec60048036036101e79190810190610b66565b6106b0565b005b3480156101fa57600080fd5b5061021560048036036102109190810190610b66565b61084b565b005b61021f610571565b151561022a57600080fd5b6000349050600080600090505b835181101561028e57610248610a29565b848281518110151561025657fe5b906020019060200201519050600061026d8261086a565b9050801561027f578160200151840193505b50508080600101915050610237565b5080821015151561029e57600080fd5b505050565b60666020528060005260406000206000915090505481565b6000606660003373ffffffffffffffffffffffffffffffffffffffff1673ffffffffffffffffffffffffffffffffffffffff1681526020019081526020016000205490506000606660003373ffffffffffffffffffffffffffffffffffffffff1673ffffffffffffffffffffffffffffffffffffffff168152602001908152602001600020819055503373ffffffffffffffffffffffffffffffffffffffff166108fc829081150290604051600060405180830381858888f1935050505015801561038a573d6000803e3d6000fd5b5050565b610396610571565b15156103a157600080fd5b600073ffffffffffffffffffffffffffffffffffffffff16603360009054906101000a900473ffffffffffffffffffffffffffffffffffffffff1673ffffffffffffffffffffffffffffffffffffffff167f8be0079c531659141344cd1fd0a4f28419497f9722a3daafe3b4186f6b6457e060405160405180910390a36000603360006101000a81548173ffffffffffffffffffffffffffffffffffffffff021916908373ffffffffffffffffffffffffffffffffffffffff160217905550565b600060019054906101000a900460ff1680610481575061048061091c565b5b8061049857506000809054906101000a900460ff16155b15156104d9576040517f08c379a00000000000000000000000000000000000000000000000000000000081526004016104d090610cb9565b60405180910390fd5b60008060019054906101000a900460ff1690506001600060016101000a81548160ff02191690831515021790555060016000806101000a81548160ff02191690831515021790555061052a336106b0565b80600060016101000a81548160ff02191690831515021790555050565b6000603360009054906101000a900473ffffffffffffffffffffffffffffffffffffffff16905090565b6000603360009054906101000a900473ffffffffffffffffffffffffffffffffffffffff1673ffffffffffffffffffffffffffffffffffffffff163373ffffffffffffffffffffffffffffffffffffffff1614905090565b6105d1610571565b15156105dc57600080fd5b6000606660008373ffffffffffffffffffffffffffffffffffffffff1673ffffffffffffffffffffffffffffffffffffffff1681526020019081526020016000205490506000606660008473ffffffffffffffffffffffffffffffffffffffff1673ffffffffffffffffffffffffffffffffffffffff168152602001908152602001600020819055508173ffffffffffffffffffffffffffffffffffffffff166108fc829081150290604051600060405180830381858888f193505050501580156106ab573d6000803e3d6000fd5b505050565b600060019054906101000a900460ff16806106cf57506106ce61091c565b5b806106e657506000809054906101000a900460ff16155b1515610727576040517f08c379a000000000000000000000000000000000000000000000000000000000815260040161071e90610cb9565b60405180910390fd5b60008060019054906101000a900460ff1690506001600060016101000a81548160ff02191690831515021790555060016000806101000a81548160ff02191690831515021790555081603360006101000a81548173ffffffffffffffffffffffffffffffffffffffff021916908373ffffffffffffffffffffffffffffffffffffffff160217905550603360009054906101000a900473ffffffffffffffffffffffffffffffffffffffff1673ffffffffffffffffffffffffffffffffffffffff16600073ffffffffffffffffffffffffffffffffffffffff167f8be0079c531659141344cd1fd0a4f28419497f9722a3daafe3b4186f6b6457e060405160405180910390a380600060016101000a81548160ff0219169083151502179055505050565b610853610571565b151561085e57600080fd5b6108678161092d565b50565b6000808260200151111561091257816020015160666000846000015173ffffffffffffffffffffffffffffffffffffffff1673ffffffffffffffffffffffffffffffffffffffff168152602001908152602001600020540160666000846000015173ffffffffffffffffffffffffffffffffffffffff1673ffffffffffffffffffffffffffffffffffffffff1681526020019081526020016000208190555060019050610917565b600090505b919050565b600080303b90506000811491505090565b600073ffffffffffffffffffffffffffffffffffffffff168173ffffffffffffffffffffffffffffffffffffffff161415151561096957600080fd5b8073ffffffffffffffffffffffffffffffffffffffff16603360009054906101000a900473ffffffffffffffffffffffffffffffffffffffff1673ffffffffffffffffffffffffffffffffffffffff167f8be0079c531659141344cd1fd0a4f28419497f9722a3daafe3b4186f6b6457e060405160405180910390a380603360006101000a81548173ffffffffffffffffffffffffffffffffffffffff021916908373ffffffffffffffffffffffffffffffffffffffff16021790555050565b6040805190810160405280600073ffffffffffffffffffffffffffffffffffffffff168152602001600081525090565b6000610a658235610d91565b905092915050565b6000610a798235610da3565b905092915050565b600082601f8301121515610a9457600080fd5b8135610aa7610aa282610d21565b610cf4565b91508181835260208401935060208101905083856040840282011115610acc57600080fd5b60005b83811015610afc5781610ae28882610b06565b845260208401935060408301925050600181019050610acf565b5050505092915050565b600060408284031215610b1857600080fd5b610b226040610cf4565b90506000610b3284828501610a59565b6000830152506020610b4684828501610b52565b60208301525092915050565b6000610b5e8235610db5565b905092915050565b600060208284031215610b7857600080fd5b6000610b8684828501610a59565b91505092915050565b600060208284031215610ba157600080fd5b6000610baf84828501610a6d565b91505092915050565b600060208284031215610bca57600080fd5b600082013567ffffffffffffffff811115610be457600080fd5b610bf084828501610a81565b91505092915050565b610c0281610d49565b82525050565b610c1181610d5b565b82525050565b6000602e82527f436f6e747261637420696e7374616e63652068617320616c726561647920626560208301527f656e20696e697469616c697a65640000000000000000000000000000000000006040830152606082019050919050565b610c7d81610d87565b82525050565b6000602082019050610c986000830184610bf9565b92915050565b6000602082019050610cb36000830184610c08565b92915050565b60006020820190508181036000830152610cd281610c17565b9050919050565b6000602082019050610cee6000830184610c74565b92915050565b6000604051905081810181811067ffffffffffffffff82111715610d1757600080fd5b8060405250919050565b600067ffffffffffffffff821115610d3857600080fd5b602082029050602081019050919050565b6000610d5482610d67565b9050919050565b60008115159050919050565b600073ffffffffffffffffffffffffffffffffffffffff82169050919050565b6000819050919050565b6000610d9c82610d67565b9050919050565b6000610dae82610d67565b9050919050565b600081905091905056fea265627a7a7230582082a8f194539dc2cc16748798980476abe38223be0b0c30e4581c6be419c384f26c6578706572696d656e74616cf50037",
  "source": "pragma experimental ABIEncoderV2;\n\nimport \"zos-lib/contracts/Initializable.sol\";\nimport \"openzeppelin-eth/contracts/ownership/Ownable.sol\";\n\ncontract DaoVinci is Initializable, Ownable {\n\n    struct Reward {\n        address payee;\n        uint amount;\n    }\n\n    mapping(address => uint) public balances;\n\n    function initialize() initializer public {\n        Ownable.initialize(msg.sender);\n    }\n\n    function distributeRewards(Reward[] memory _rewards) public payable onlyOwner {\n        uint soldPrice = msg.value;\n        uint totalRewards;\n        for (uint i = 0; i < _rewards.length; i++) {\n            Reward memory reward = _rewards[i];\n            bool balanceIncreased = _increaseBalance(reward);\n            if (balanceIncreased) {\n                totalRewards = totalRewards + reward.amount;\n            }\n        }\n        require(soldPrice >= totalRewards);\n    }\n\n    function withdraw() public {\n        uint balance = balances[msg.sender];\n        balances[msg.sender] = 0;\n        msg.sender.transfer(balance);\n    }\n\n    function withdrawOnBehalf(address payable usersAddress) public onlyOwner {\n        uint balance = balances[usersAddress];\n        balances[usersAddress] = 0;\n        usersAddress.transfer(balance);\n    }\n\n    function _increaseBalance(Reward memory _reward) private returns(bool) {\n        if (_reward.amount > 0) {\n            balances[_reward.payee] = balances[_reward.payee] + _reward.amount;\n            return true;\n        }\n        return false;\n    }\n}\n",
  "sourcePath": "/Users/stephenjackson/Code/Ethereum/leonardo-dao-vinci/contracts/DaoVinci.sol",
  "compiler": {
    "name": "solc",
    "version": "0.5.0+commit.1d4f565a.Emscripten.clang"
  },
  "schemaVersion": "3.0.2",
  "updatedAt": "2019-02-17T05:50:05.869Z",
  "devdoc": {
    "methods": {
      "initialize(address)": {
        "details": "The Ownable constructor sets the original `owner` of the contract to the sender account."
      },
      "isOwner()": {
        "return": "true if `msg.sender` is the owner of the contract."
      },
      "owner()": {
        "return": "the address of the owner."
      },
      "renounceOwnership()": {
        "details": "Allows the current owner to relinquish control of the contract."
      },
      "transferOwnership(address)": {
        "details": "Allows the current owner to transfer control of the contract to a newOwner.",
        "params": {
          "newOwner": "The address to transfer ownership to."
        }
      }
    }
  },
  "userdoc": {
    "methods": {
      "renounceOwnership()": {
        "notice": "Renouncing to ownership will leave the contract without an owner. It will not be possible to call the functions with the `onlyOwner` modifier anymore."
      }
    }
  }
}