{
  "contractName": "DaoVinci",
  "abi": [
    {
      "constant": true,
      "inputs": [
        {
          "name": "",
          "type": "address"
        }
      ],
      "name": "balances",
      "outputs": [
        {
          "name": "",
          "type": "uint256"
        }
      ],
      "payable": false,
      "stateMutability": "view",
      "type": "function"
    },
    {
      "constant": false,
      "inputs": [],
      "name": "renounceOwnership",
      "outputs": [],
      "payable": false,
      "stateMutability": "nonpayable",
      "type": "function"
    },
    {
      "constant": true,
      "inputs": [],
      "name": "owner",
      "outputs": [
        {
          "name": "",
          "type": "address"
        }
      ],
      "payable": false,
      "stateMutability": "view",
      "type": "function"
    },
    {
      "constant": true,
      "inputs": [],
      "name": "isOwner",
      "outputs": [
        {
          "name": "",
          "type": "bool"
        }
      ],
      "payable": false,
      "stateMutability": "view",
      "type": "function"
    },
    {
      "constant": false,
      "inputs": [
        {
          "name": "newOwner",
          "type": "address"
        }
      ],
      "name": "transferOwnership",
      "outputs": [],
      "payable": false,
      "stateMutability": "nonpayable",
      "type": "function"
    },
    {
      "anonymous": false,
      "inputs": [
        {
          "indexed": false,
          "name": "payee",
          "type": "address"
        },
        {
          "indexed": false,
          "name": "amount",
          "type": "uint256"
        }
      ],
      "name": "RewardDistributed",
      "type": "event"
    },
    {
      "anonymous": false,
      "inputs": [
        {
          "indexed": false,
          "name": "payee",
          "type": "address"
        },
        {
          "indexed": false,
          "name": "amount",
          "type": "uint256"
        }
      ],
      "name": "BalanceWithdrawn",
      "type": "event"
    },
    {
      "anonymous": false,
      "inputs": [
        {
          "indexed": true,
          "name": "previousOwner",
          "type": "address"
        },
        {
          "indexed": true,
          "name": "newOwner",
          "type": "address"
        }
      ],
      "name": "OwnershipTransferred",
      "type": "event"
    },
    {
      "constant": false,
      "inputs": [],
      "name": "initialize",
      "outputs": [],
      "payable": false,
      "stateMutability": "nonpayable",
      "type": "function"
    },
    {
      "constant": false,
      "inputs": [
        {
          "name": "sender",
          "type": "address"
        }
      ],
      "name": "initialize",
      "outputs": [],
      "payable": false,
      "stateMutability": "nonpayable",
      "type": "function"
    },
    {
      "constant": false,
      "inputs": [
        {
          "components": [
            {
              "name": "payee",
              "type": "address"
            },
            {
              "name": "amount",
              "type": "uint256"
            }
          ],
          "name": "_rewards",
          "type": "tuple[]"
        }
      ],
      "name": "distributeRewards",
      "outputs": [],
      "payable": true,
      "stateMutability": "payable",
      "type": "function"
    },
    {
      "constant": false,
      "inputs": [],
      "name": "withdraw",
      "outputs": [],
      "payable": false,
      "stateMutability": "nonpayable",
      "type": "function"
    },
    {
      "constant": false,
      "inputs": [
        {
          "name": "usersAddress",
          "type": "address"
        }
      ],
      "name": "withdrawOnBehalf",
      "outputs": [],
      "payable": false,
      "stateMutability": "nonpayable",
      "type": "function"
    }
  ],
  "bytecode": "0x608060405234801561001057600080fd5b50610f0a806100206000396000f3fe6080604052600436106100a3576000357c0100000000000000000000000000000000000000000000000000000000900463ffffffff168062cfb539146100a857806327e235e3146100c45780633ccfd60b14610101578063715018a6146101185780638129fc1c1461012f5780638da5cb5b146101465780638f32d59b14610171578063a22b97f51461019c578063c4d66de8146101c5578063f2fde38b146101ee575b600080fd5b6100c260048036036100bd9190810190610c32565b610217565b005b3480156100d057600080fd5b506100eb60048036036100e69190810190610be0565b6102e4565b6040516100f89190610db4565b60405180910390f35b34801561010d57600080fd5b506101166102fc565b005b34801561012457600080fd5b5061012d6103cf565b005b34801561013b57600080fd5b506101446104a3565b005b34801561015257600080fd5b5061015b610588565b6040516101689190610d0c565b60405180910390f35b34801561017d57600080fd5b506101866105b2565b6040516101939190610d79565b60405180910390f35b3480156101a857600080fd5b506101c360048036036101be9190810190610c09565b61060a565b005b3480156101d157600080fd5b506101ec60048036036101e79190810190610be0565b61072a565b005b3480156101fa57600080fd5b5061021560048036036102109190810190610be0565b6108c5565b005b61021f6105b2565b151561022a57600080fd5b6000349050600080600090505b83518110156102cf57610248610aa3565b848281518110151561025657fe5b906020019060200201519050600061026d826108e4565b905080156102c0578160200151840193507fe34918ff1c7084970068b53fd71ad6d8b04e9f15d3886cbf006443e6cdc52ea6826000015183602001516040516102b7929190610d50565b60405180910390a15b50508080600101915050610237565b508082101515156102df57600080fd5b505050565b60666020528060005260406000206000915090505481565b6000606660003373ffffffffffffffffffffffffffffffffffffffff1673ffffffffffffffffffffffffffffffffffffffff1681526020019081526020016000205490506000606660003373ffffffffffffffffffffffffffffffffffffffff1673ffffffffffffffffffffffffffffffffffffffff168152602001908152602001600020819055503373ffffffffffffffffffffffffffffffffffffffff166108fc829081150290604051600060405180830381858888f193505050501580156103cb573d6000803e3d6000fd5b5050565b6103d76105b2565b15156103e257600080fd5b600073ffffffffffffffffffffffffffffffffffffffff16603360009054906101000a900473ffffffffffffffffffffffffffffffffffffffff1673ffffffffffffffffffffffffffffffffffffffff167f8be0079c531659141344cd1fd0a4f28419497f9722a3daafe3b4186f6b6457e060405160405180910390a36000603360006101000a81548173ffffffffffffffffffffffffffffffffffffffff021916908373ffffffffffffffffffffffffffffffffffffffff160217905550565b600060019054906101000a900460ff16806104c257506104c1610996565b5b806104d957506000809054906101000a900460ff16155b151561051a576040517f08c379a000000000000000000000000000000000000000000000000000000000815260040161051190610d94565b60405180910390fd5b60008060019054906101000a900460ff1690506001600060016101000a81548160ff02191690831515021790555060016000806101000a81548160ff02191690831515021790555061056b3361072a565b80600060016101000a81548160ff02191690831515021790555050565b6000603360009054906101000a900473ffffffffffffffffffffffffffffffffffffffff16905090565b6000603360009054906101000a900473ffffffffffffffffffffffffffffffffffffffff1673ffffffffffffffffffffffffffffffffffffffff163373ffffffffffffffffffffffffffffffffffffffff1614905090565b6106126105b2565b151561061d57600080fd5b6000606660008373ffffffffffffffffffffffffffffffffffffffff1673ffffffffffffffffffffffffffffffffffffffff1681526020019081526020016000205490506000606660008473ffffffffffffffffffffffffffffffffffffffff1673ffffffffffffffffffffffffffffffffffffffff168152602001908152602001600020819055508173ffffffffffffffffffffffffffffffffffffffff166108fc829081150290604051600060405180830381858888f193505050501580156106ec573d6000803e3d6000fd5b507fddc398b321237a8d40ac914388309c2f52a08c134e4dc4ce61e32f57cb7d80f1828260405161071e929190610d27565b60405180910390a15050565b600060019054906101000a900460ff16806107495750610748610996565b5b8061076057506000809054906101000a900460ff16155b15156107a1576040517f08c379a000000000000000000000000000000000000000000000000000000000815260040161079890610d94565b60405180910390fd5b60008060019054906101000a900460ff1690506001600060016101000a81548160ff02191690831515021790555060016000806101000a81548160ff02191690831515021790555081603360006101000a81548173ffffffffffffffffffffffffffffffffffffffff021916908373ffffffffffffffffffffffffffffffffffffffff160217905550603360009054906101000a900473ffffffffffffffffffffffffffffffffffffffff1673ffffffffffffffffffffffffffffffffffffffff16600073ffffffffffffffffffffffffffffffffffffffff167f8be0079c531659141344cd1fd0a4f28419497f9722a3daafe3b4186f6b6457e060405160405180910390a380600060016101000a81548160ff0219169083151502179055505050565b6108cd6105b2565b15156108d857600080fd5b6108e1816109a7565b50565b6000808260200151111561098c57816020015160666000846000015173ffffffffffffffffffffffffffffffffffffffff1673ffffffffffffffffffffffffffffffffffffffff168152602001908152602001600020540160666000846000015173ffffffffffffffffffffffffffffffffffffffff1673ffffffffffffffffffffffffffffffffffffffff1681526020019081526020016000208190555060019050610991565b600090505b919050565b600080303b90506000811491505090565b600073ffffffffffffffffffffffffffffffffffffffff168173ffffffffffffffffffffffffffffffffffffffff16141515156109e357600080fd5b8073ffffffffffffffffffffffffffffffffffffffff16603360009054906101000a900473ffffffffffffffffffffffffffffffffffffffff1673ffffffffffffffffffffffffffffffffffffffff167f8be0079c531659141344cd1fd0a4f28419497f9722a3daafe3b4186f6b6457e060405160405180910390a380603360006101000a81548173ffffffffffffffffffffffffffffffffffffffff021916908373ffffffffffffffffffffffffffffffffffffffff16021790555050565b6040805190810160405280600073ffffffffffffffffffffffffffffffffffffffff168152602001600081525090565b6000610adf8235610e6c565b905092915050565b6000610af38235610e7e565b905092915050565b600082601f8301121515610b0e57600080fd5b8135610b21610b1c82610dfc565b610dcf565b91508181835260208401935060208101905083856040840282011115610b4657600080fd5b60005b83811015610b765781610b5c8882610b80565b845260208401935060408301925050600181019050610b49565b5050505092915050565b600060408284031215610b9257600080fd5b610b9c6040610dcf565b90506000610bac84828501610ad3565b6000830152506020610bc084828501610bcc565b60208301525092915050565b6000610bd88235610e90565b905092915050565b600060208284031215610bf257600080fd5b6000610c0084828501610ad3565b91505092915050565b600060208284031215610c1b57600080fd5b6000610c2984828501610ae7565b91505092915050565b600060208284031215610c4457600080fd5b600082013567ffffffffffffffff811115610c5e57600080fd5b610c6a84828501610afb565b91505092915050565b610c7c81610e9a565b82525050565b610c8b81610e24565b82525050565b610c9a81610e36565b82525050565b6000602e82527f436f6e747261637420696e7374616e63652068617320616c726561647920626560208301527f656e20696e697469616c697a65640000000000000000000000000000000000006040830152606082019050919050565b610d0681610e62565b82525050565b6000602082019050610d216000830184610c82565b92915050565b6000604082019050610d3c6000830185610c73565b610d496020830184610cfd565b9392505050565b6000604082019050610d656000830185610c82565b610d726020830184610cfd565b9392505050565b6000602082019050610d8e6000830184610c91565b92915050565b60006020820190508181036000830152610dad81610ca0565b9050919050565b6000602082019050610dc96000830184610cfd565b92915050565b6000604051905081810181811067ffffffffffffffff82111715610df257600080fd5b8060405250919050565b600067ffffffffffffffff821115610e1357600080fd5b602082029050602081019050919050565b6000610e2f82610e42565b9050919050565b60008115159050919050565b600073ffffffffffffffffffffffffffffffffffffffff82169050919050565b6000819050919050565b6000610e7782610e42565b9050919050565b6000610e8982610e42565b9050919050565b6000819050919050565b6000610ea582610eac565b9050919050565b6000610eb782610ebe565b9050919050565b6000610ec982610e42565b905091905056fea265627a7a723058209ef4b592d27f836c0c16df0a233a315ae64f04c10981ca378d71e708479200a46c6578706572696d656e74616cf50037",
  "source": "pragma experimental ABIEncoderV2;\n\nimport \"zos-lib/contracts/Initializable.sol\";\nimport \"openzeppelin-eth/contracts/ownership/Ownable.sol\";\n\ncontract DaoVinci is Initializable, Ownable {\n\n    event RewardDistributed(address payee, uint amount);\n    event BalanceWithdrawn(address payee, uint amount);\n\n    struct Reward {\n        address payee;\n        uint amount;\n    }\n\n    mapping(address => uint) public balances;\n\n    function initialize() initializer public {\n        Ownable.initialize(msg.sender);\n    }\n\n    function distributeRewards(Reward[] memory _rewards) public payable onlyOwner {\n        uint soldPrice = msg.value;\n        uint totalRewards;\n        for (uint i = 0; i < _rewards.length; i++) {\n            Reward memory reward = _rewards[i];\n            bool balanceIncreased = _increaseBalance(reward);\n            if (balanceIncreased) {\n                totalRewards = totalRewards + reward.amount;\n                emit RewardDistributed(reward.payee, reward.amount);\n            }\n        }\n        require(soldPrice >= totalRewards);\n    }\n\n    function withdraw() public {\n        uint balance = balances[msg.sender];\n        balances[msg.sender] = 0;\n        msg.sender.transfer(balance);\n    }\n\n    function withdrawOnBehalf(address payable usersAddress) public onlyOwner {\n        uint balance = balances[usersAddress];\n        balances[usersAddress] = 0;\n        usersAddress.transfer(balance);\n        emit BalanceWithdrawn(usersAddress, balance);\n    }\n\n    function _increaseBalance(Reward memory _reward) private returns(bool) {\n        if (_reward.amount > 0) {\n            balances[_reward.payee] = balances[_reward.payee] + _reward.amount;\n            return true;\n        }\n        return false;\n    }\n}\n",
  "sourcePath": "/Users/stephenjackson/Code/Ethereum/leonardo-dao-vinci/contracts/DaoVinci.sol",
  "compiler": {
    "name": "solc",
    "version": "0.5.0+commit.1d4f565a.Emscripten.clang"
  },
  "schemaVersion": "3.0.2",
  "updatedAt": "2019-02-17T07:28:45.676Z",
  "devdoc": {
    "methods": {
      "initialize(address)": {
        "details": "The Ownable constructor sets the original `owner` of the contract to the sender account."
      },
      "isOwner()": {
        "return": "true if `msg.sender` is the owner of the contract."
      },
      "owner()": {
        "return": "the address of the owner."
      },
      "renounceOwnership()": {
        "details": "Allows the current owner to relinquish control of the contract."
      },
      "transferOwnership(address)": {
        "details": "Allows the current owner to transfer control of the contract to a newOwner.",
        "params": {
          "newOwner": "The address to transfer ownership to."
        }
      }
    }
  },
  "userdoc": {
    "methods": {
      "renounceOwnership()": {
        "notice": "Renouncing to ownership will leave the contract without an owner. It will not be possible to call the functions with the `onlyOwner` modifier anymore."
      }
    }
  }
}